:020000040800F2
:100000000028002021190008B1180008B7180008BE
:10001000BD180008C3180008C91800080000000037
:10002000000000000000000000000000CF180008E1
:10003000DB18000800000000E7180008F3180008AB
:100040006919000869190008691900086919000888
:100050006919000869190008691900086919000878
:100060006919000869190008691900086919000868
:100070006919000869190008691900086919000858
:100080006919000869190008691900086919000848
:100090006919000869190008691900086919000838
:1000A0006919000869190008691900086919000828
:1000B000011900086919000800000000691900080A
:1000C000691900080000000000000000691900081C
:1000D000000000006919000869190008000000000C
:1000E0006919000869190008691900080000000072
:1000F0000000000000000000000000000000000000
:0C01000000000000000000005FF808F1A3
:10010C0010B5054C237833B9044B13B10448AFF345
:10011C0000800123237010BD880000200000000027
:10012C00C42F000808B5034B1BB103490348AFF3B8
:10013C00008008BD000000008C000020C42F0008C7
:10014C0080B483B000AF7860094A7B6852F82330E2
:10015C00012B06D1064A7B68002142F823100123AB
:10016C0000E0002318460C37BD4680BC704700BF2A
:10017C00A400002080B483B000AF7860044A7B6890
:10018C00012142F8231000BF0C37BD4680BC7047DC
:10019C00A400002080B582B000AF00237B6074E027
:1001AC003E4A7B6852F823203D497B6841F8232066
:1001BC003C4A7B6852F8232038497B6841F823205D
:1001CC00394A7B6852F823309BB21946374801F004
:1001DC00B3FE03461946334A7B6842F82310304A73
:1001EC007B6852F823202D497B6851F823309A42C2
:1001FC0048D12A4A7B6852F823202A497B6851F857
:10020C0023309A423ED12A4A7B6852F82320254952
:10021C007B6851F823309A4217D0224A7B6852F8F7
:10022C00232023497B6841F823201E4A7B6852F81F
:10023C002330002B26D17868FFF79CFF1D4A7B6882
:10024C004FF4967142F823101CE01A4A7B6852F85E
:10025C0023305A1E17497B6841F82320154A7B68C6
:10026C0052F82330002B0DD10E4A7B6852F8233004
:10027C00002B02D17868FFF77DFF0E4A7B68642162
:10028C0042F823107B6801337B607B68022B87DD8F
:10029C0000BF00BF0837BD4680BD00BF180000205E
:1002AC000C00002024000020000000200008014069
:1002BC00300000203C00002080B582B000AF786098
:1002CC007B68002B22D100220121BD4801F04BFE9E
:1002DC0000220221BA4801F046FE00220421B8484F
:1002EC0001F041FE00220821B54801F03CFE00223D
:1002FC001021B34801F037FE00222021B04801F054
:10030C0032FE01224021AE4801F02DFE7B68012B0C
:10031C0022D101220121AA4801F025FE002202214E
:10032C00A74801F020FE00220421A54801F01BFE85
:10033C0001220821A24801F016FE01221021A0483A
:10034C0001F011FE012220219D4801F00CFE01223A
:10035C0040219B4801F007FE7B68022B22D1002232
:10036C000121974801F0FFFD00220221944801F081
:10037C00FAFD01220421924801F0F5FD002208212A
:10038C008F4801F0F0FD002210218D4801F0EBFDAB
:10039C00012220218A4801F0E6FD002240218848F4
:1003AC0001F0E1FD7B68032B22D10022012184485E
:1003BC0001F0D9FD00220221814801F0D4FD002278
:1003CC0004217F4801F0CFFD002208217C4801F078
:1003DC00CAFD012210217A4801F0C5FD012220211D
:1003EC00774801F0C0FD00224021754801F0BBFDAB
:1003FC007B68042B22D101220121714801F0B3FD4D
:10040C00002202216E4801F0AEFD002204216C484E
:10041C0001F0A9FD01220821694801F0A4FD012287
:10042C001021674801F09FFD00222021644801F053
:10043C009AFD00224021624801F095FD7B68052B56
:10044C0022D1002201215E4801F08DFD0122022102
:10045C005B4801F088FD00220421594801F083FD1E
:10046C0000220821564801F07EFD0122102154483B
:10047C0001F079FD00222021514801F074FD002289
:10048C0040214F4801F06FFD7B68062B22D10022E2
:10049C0001214B4801F067FD01220221484801F07F
:1004AC0062FD00220421464801F05DFD0022082176
:1004BC00434801F058FD00221021414801F053FD42
:1004CC00002220213E4801F04EFD002240213C48F4
:1004DC0001F049FD7B68072B22D10022012138480D
:1004EC0001F041FD00220221354801F03CFD0022C3
:1004FC000421334801F037FD01220821304801F076
:10050C0032FD012210212E4801F02DFD0122202167
:10051C002B4801F028FD01224021294801F023FD40
:10052C007B68082B22D100220121254801F01BFDFC
:10053C0000220221224801F016FD0022042120484D
:10054C0001F011FD002208211D4801F00CFD0022D4
:10055C0010211B4801F007FD00222021184801F052
:10056C0002FD00224021164801F0FDFC7B68092B9E
:10057C0022D100220121124801F0F5FC00220221B7
:10058C000F4801F0F0FC002204210D4801F0EBFCB7
:10059C00002208210A4801F0E6FC0122102108483B
:1005AC0001F0E1FC00222021054801F0DCFC0022D6
:1005BC004021034801F0D7FC00BF0837BD4680BD81
:1005CC00000C014080B582B000AF78607B68002BD6
:1005DC0028D100228021CF4801F0C5FC00224FF425
:1005EC008071CC4801F0BFFC00224FF40071C94867
:1005FC0001F0B9FC00224FF48061C64801F0B3FC55
:10060C0000224FF40061C34801F0ADFC00224FF40E
:10061C008051C04801F0A7FC01224FF40051BD48A5
:10062C0001F0A1FC7B68012B28D101228021B94863
:10063C0001F099FC00224FF48071B64801F093FC54
:10064C0000224FF40071B34801F08DFC01224FF4ED
:10065C008061B04801F087FC01224FF40061AD4885
:10066C0001F081FC01224FF48051AA4801F07BFC7F
:10067C0001224FF40051A74801F075FC7B68022B56
:10068C0028D100228021A34801F06DFC00224FF4F8
:10069C008071A04801F067FC01224FF400719D4865
:1006AC0001F061FC00224FF480619A4801F05BFC80
:1006BC0000224FF40061974801F055FC01224FF4E1
:1006CC008051944801F04FFC00224FF400519148A6
:1006DC0001F049FC7B68032B28D1002280218D4836
:1006EC0001F041FC00224FF480718A4801F03BFC80
:1006FC0000224FF40071874801F035FC00224FF4C2
:10070C008061844801F02FFC01224FF40061814884
:10071C0001F029FC01224FF480517E4801F023FCAA
:10072C0000224FF400517B4801F01DFC7B68042B28
:10073C0028D101228021774801F015FC00224FF4CA
:10074C008071744801F00FFC00224FF40071714865
:10075C0001F009FC01224FF480616E4801F003FCAA
:10076C0001224FF400616B4801F0FDFB00224FF4B5
:10077C008051684801F0F7FB00224FF400516548A6
:10078C0001F0F1FB7B68052B28D100228021614808
:10079C0001F0E9FB01224FF480715E4801F0E3FBAC
:1007AC0000224FF400715B4801F0DDFB00224FF496
:1007BC008061584801F0D7FB01224FF40061554885
:1007CC0001F0D1FB00224FF48051524801F0CBFBD9
:1007DC0000224FF400514F4801F0C5FB7B68062BFB
:1007EC0028D1002280214B4801F0BDFB01224FF49F
:1007FC008071484801F0B7FB00224FF40071454866
:10080C0001F0B1FB00224FF48061424801F0ABFBD8
:10081C0000224FF400613F4801F0A5FB00224FF489
:10082C0080513C4801F09FFB00224FF400513948A5
:10083C0001F099FB7B68072B28D1002280213548D9
:10084C0001F091FB00224FF48071324801F08BFBD8
:10085C0000224FF400712F4801F085FB01224FF468
:10086C0080612C4801F07FFB01224FF40061294884
:10087C0001F079FB01224FF48051264801F073FB03
:10088C0001224FF40051234801F06DFB7B68082BCB
:10089C0028D1002280211F4801F065FB00224FF473
:1008AC0080711C4801F05FFB00224FF40071194865
:1008BC0001F059FB00224FF48061164801F053FB04
:1008CC0000224FF40061134801F04DFB00224FF45D
:1008DC008051104801F047FB00224FF400510D48A5
:1008EC0001F041FB7B68092B2BD1002280210948A8
:1008FC0001F039FB00224FF48071064801F033FB04
:10090C0000224FF40071034801F02DFB00224FF43C
:10091C00806101E0000C01400C4801F024FB012235
:10092C004FF40061094801F01EFB00224FF4805186
:10093C00064801F018FB00224FF40051034801F067
:10094C0012FB00BF0837BD4680BD00BF000C014044
:10095C0080B500AF134B1B68012B21D14FF47A707B
:10096C0000F074FE104B1B68013B0F4A13600E4BDA
:10097C001B680E4A82FB03129210DB17D31A0C4A27
:10098C001360094B1968094B83FB01239A10CB1791
:10099C00D21A13469B0013445B00CA1A044B5A60CC
:1009AC0000BF80BD200100204800002067666666FD
:1009BC005C00002080B500AF134B1B68012B21D1CC
:1009CC004FF47A7000F05CFE104B1B68013B0F4A31
:1009DC0013600E4B1B680E4A82FB03129210DB173E
:1009EC00D31A0C4A9360094B1968094B83FB0123FA
:1009FC009A10CB17D21A13469B0013445B00CA1AE9
:100A0C00044BDA6000BF80BD280100204C000020A0
:100A1C00676666665C00002080B500AF0A4B1B68F9
:100A2C00012B08D14FF4FA7000F044FE074B1B6801
:100A3C000133064A1360054B1B68022B02D1034B92
:100A4C0000221A6000BF80BD30010020B0000020E1
:100A5C0080B500AF0020FFF773FB0346012B04D1D8
:100A6C007C4B1B6801337B4A13607A4B1B68052B4C
:100A7C0011D1784B01221A60774B01221A60774B07
:100A8C0001221A60764B00221A60764B00221A6003
:100A9C00754B00221A60754B1B68002B0ED1002081
:100AAC00FFF70AFC00221021714801F05CFA0122C8
:100ABC004FF400616E4801F056FA0FE0654B1B686D
:100ACC001846FFF7F9FB01221021694801F04BFA97
:100ADC0000224FF40061664801F045FA5D4B1B683B
:100AEC00013B032B00F2258201A252F823F000BF38
:100AFC003F0F00080D0B0008990C0008ED0D0008C5
:100B0C00012240215A4801F02EFA01224FF40071C3
:100B1C00574801F028FA01228021554801F023FAA8
:100B2C0001224FF48061524801F01DFA514B1B68B1
:100B3C00012B0CD14FF4FA7000F0D6FD20214C485B
:100B4C0001F029FA4FF48071494801F024FA012090
:100B5C00FFF7F6FA0346012B18D1414B1B68013302
:100B6C003F4A1360444B1B68444A82FB03129211A8
:100B7C00DB17D21A3A4B1B681344632B06DD3E4B32
:100B8C004FF47A721A60364B00221A603A4B1B688B
:100B9C003A4A82FB03129211DB17D21A304B1B68B4
:100BAC001344374A82FB03129210DB17D31A354ACF
:100BBC001360314B1B68314A82FB03129211DB1715
:100BCC00D21A274B1B68D1182D4B83FB01239A108B
:100BDC00CB17D21A13469B0013445B00CA1A2A4B3C
:100BEC001A60224B1B68002B0FD1264B1B68184632
:100BFC00FFF7E8FC002204211D4801F0B4F90122A2
:100C0C0008211B4801F0AFF90EE01F4B1B6818467A
:100C1C00FFF7D8FC01220421154801F0A4F90022A9
:100C2C000821134801F09FF90220FFF789FA0346C7
:100C3C00012B40F080810A4B1B684FF47A7203FB46
:100C4C0002F20D4B1B6813440B4A1360044B002239
:100C5C001A6070E16C00002070000020740000200D
:100C6C00B4000020B8000020BC000020B000002020
:100C7C00000801403801002050000020D34D6210C4
:100C8C0067666666C0000020C40000200122202197
:100C9C00AC4801F068F901224FF48071A94801F0C9
:100CAC0062F901228021A74801F05DF901224FF47D
:100CBC008061A44801F057F9A34B1B68012B0CD1A0
:100CCC004FF4FA7000F010FD40219E4801F063F9DA
:100CDC004FF400719B4801F05EF90120FFF730FAE8
:100CEC000346012B18D1994B1B680133974A1360AB
:100CFC00974B1B68974A82FB03129211DB17D21A8F
:100D0C00924B1B681344632B06DD914B4FF47A72A4
:100D1C001A608E4B00221A608D4B1B688D4A82FB29
:100D2C0003129211DB17D21A884B1B6813448A4AA0
:100D3C0082FB03129210DB17D31A884A1360844B80
:100D4C001B68844A82FB03129211DB17D21A7F4B69
:100D5C001B68D118804B83FB01239A10CB17D21A36
:100D6C0013469B0013445B00CA1A7D4B1A607D4BE3
:100D7C001B68002B0FD1794B1B681846FFF722FC20
:100D8C00002204216F4801F0EEF8012208216D4881
:100D9C0001F0E9F80EE0724B1B681846FFF712FCE5
:100DAC0001220421674801F0DEF800220821654881
:100DBC0001F0D9F80220FFF7C3F90346012B40F0EC
:100DCC00BC80624B1B684FF47A7203FB02F2604BDF
:100DDC001B6813445E4A13605C4B00221A60ACE043
:100DEC0001224021574801F0BEF801224FF4007156
:100DFC00544801F0B8F801222021524801F0B3F810
:100E0C0001224FF480714F4801F0ADF84E4B1B6836
:100E1C00012B0CD14FF4FA7000F066FC802149488C
:100E2C0001F0B9F84FF48061464801F0B4F80120A4
:100E3C00FFF786F90346012B18D14B4B1B68013386
:100E4C00494A1360494B1B68424A82FB03129211B8
:100E5C00DB17D21A444B1B681344632B06DD434B40
:100E6C004FF47A721A60404B00221A603F4B1B6899
:100E7C00384A82FB03129211DB17D21A3A4B1B68C9
:100E8C001344354A82FB03129210DB17D31A334AF0
:100E9C001360364B1B682F4A82FB03129211DB172F
:100EAC00D21A314B1B68D1182B4B83FB01239A10A0
:100EBC00CB17D21A13469B0013445B00CA1A284B5B
:100ECC001A60284B1B68002B0FD1244B1B6818464B
:100EDC00FFF778FB002204211A4801F044F80122A4
:100EEC000821184801F03FF80EE01D4B1B6818460E
:100EFC00FFF768FB01220421124801F034F80022AC
:100F0C000821104801F02FF80220FFF719F90346C9
:100F1C00012B14D1144B1B684FF47A7203FB02F2B1
:100F2C00124B1B681344114A13600F4B00221A60BA
:100F3C0005E000BF04E000BF02E000BF00E000BF1E
:100F4C0000BF80BD0008014038010020B80000201F
:100F5C0058000020D34D621067666666C000002002
:100F6C00C4000020B0000020BC0000205400002071
:100F7C0080B500AF0020FFF7E3F80346012B04D146
:100F8C00764B1B680133754A1360744B1B68012B3D
:100F9C0040F0DE80724B1B68013B032B00F2A780F4
:100FAC0001A252F823F000BFC50F00081110000871
:100FBC005F100008AD10000801222021694800F0E4
:100FCC00D2FF01228021674800F0CDFF0122402191
:100FDC00644800F0C8FF624B02221A60624B1B6827
:100FEC00184600F0FFFA4FF47A7000F02FFB5E4BBE
:100FFC001B685E4A82FB03129211DB17D31A5C4A00
:10100C0013607BE000222021564800F0ACFF012247
:10101C008021544800F0A7FF01224021514800F0E4
:10102C00A2FF544B1B68012B63D1534B1B68184612
:10103C0000F0D8FA504B1B684C4A82FB03129211F9
:10104C00DB17D31A01334A4A1360454B03221A604B
:10105C004FE001222021434800F085FF002280212F
:10106C00404800F080FF012240213E4800F07BFF09
:10107C00404B1B68012B3ED1404B1B68184600F0BF
:10108C00B1FA3E4B1B68394A82FB03129211DB17F3
:10109C00D31A0133364A1360314B04221A602AE00A
:1010AC00012220212F4800F05EFF012280212D48D3
:1010BC0000F059FF002240212A4800F054FF2D4B2C
:1010CC001B68012B19D1284B1B68184600F08AFAB3
:1010DC00254B1B68254A82FB03129211DB17D31A8E
:1010EC000133234A13601E4B02221A6005E000BF35
:1010FC0004E000BF02E000BF00E000BFFFF728FCE7
:10110C00FFF78AFC1E4B1B68002B10D11D4B5B6834
:10111C001846FFF7D1F801221021124800F023FFE6
:10112C0000224FF400610F4800F01DFF14E0154B36
:10113C001B681846FFF7C0F800221021094800F080
:10114C0012FF01224FF40061064800F00CFF03E08F
:10115C00FFF762FCFFF77CFC00BF80BD6C00002039
:10116C00700000200008014050000020D34D621098
:10117C0048000020100100205400002058000020DE
:10118C00B00000205C00002080B500AF774B1B68DE
:10119C00012B40F0E980764B1B68013B032B00F2DE
:1011AC00B58001A252F823F0C51100081D120008E9
:1011BC0071120008C512000801224FF480716D48AD
:1011CC0000F0D1FE01224FF480616A4800F0CBFEA2
:1011DC0001224FF40071674800F0C5FE644B0322F6
:1011EC001A60654B1B68184600F016FA4FF47A70BB
:1011FC0000F046FA604B1B68604A82FB03129211A6
:10120C00DB17D31A5E4A13600020FEF799FF84E0C7
:10121C0000224FF48071574800F0A5FE01224FF4D4
:10122C008061544800F09FFE01224FF40071514838
:10123C0000F099FE534B1B68012B69D14E4B1B6878
:10124C00184600F0E9F94C4B1B684C4A82FB031220
:10125C009211DB17D31A0133494A1360444B032212
:10126C001A6055E001224FF48071424800F07BFE79
:10127C0000224FF480613F4800F075FE01224FF4CC
:10128C0000713C4800F06FFE3E4B1B68012B41D1B6
:10129C003D4B1B68184600F0BFF93B4B1B68374AA7
:1012AC0082FB03129211DB17D31A0133344A1360F9
:1012BC002F4B04221A602DE001224FF480712D482F
:1012CC0000F051FE01224FF480612A4800F04BFEE1
:1012DC0000224FF40071274800F045FE294B1B6893
:1012EC00012B19D1294B1B68184600F095F9274B97
:1012FC001B68224A82FB03129211DB17D31A0133AB
:10130C001F4A13601A4B02221A6005E000BF04E06A
:10131C0000BF02E000BF00E000BFFFF74BFBFFF790
:10132C007BFB1B4B1B68002B0FD11A4BDB68184641
:10133C00FFF748F9012204210E4800F014FE0022A8
:10134C0008210C4800F00FFE0EE0124B9B6818466B
:10135C00FFF738F900220421064800F004FE0122B0
:10136C000821044800F0FFFD00BF80BD6C00002088
:10137C00740000200008014054000020D34D62107E
:10138C004C000020180100205800002050000020C4
:10139C00B00000205C00002080B500AF00F0E0FA47
:1013AC0000F022F800F0A8F800F05AF8094801F013
:1013BC0043FA094B01221A60084B01221A60084BB0
:1013CC0001221A60074B01221A60FFF7D1FDFFF7CB
:1013DC00DBFEFAE7C80000203001002038010020B5
:1013EC00700000207400002080B590B000AF07F1B1
:1013FC00180328220021184601F0D6FD3B1D0022BF
:10140C001A605A609A60DA601A610223BB61012388
:10141C00BB621023FB6200237B6307F118031846A1
:10142C0000F0D2FD0346002B01D000F0D5F80F23BD
:10143C007B600023BB600023FB6000233B61002327
:10144C007B613B1D0021184601F040F80346002B40
:10145C0001D000F0C1F800BF4037BD4680BD000090
:10146C0080B586B000AF07F1080300221A605A60FD
:10147C009A60DA603B4600221A605A601D4B4FF0AE
:10148C0080421A601B4B41F63F725A60194B002286
:10149C009A60184B0A22DA60164B00221A61154B1F
:1014AC0000229A61134801F077F90346002B01D012
:1014BC0000F092F84FF48053BB6007F10803194613
:1014CC000C4801F00DFB0346002B01D000F084F812
:1014DC0000233B6000237B603B461946054801F026
:1014EC00D5FC0346002B01D000F076F800BF18376E
:1014FC00BD4680BDC800002080B586B000AF07F1A6
:10150C00080300221A605A609A60DA60294B9B69C2
:10151C00284A43F004039361264B9B6903F00403B0
:10152C007B607B68234B9B69224A43F008039361E1
:10153C00204B9B6903F008033B603B68002240F69C
:10154C00FC711D4800F00FFD002243F6FF711B4893
:10155C0000F009FD40F6FC73BB600123FB60002327
:10156C003B6102237B6107F108031946124800F026
:10157C0067FB43F6FF73BB600123FB6000233B61F9
:10158C0002237B6107F1080319460C4800F058FB55
:10159C004FF46043BB600023FB6001233B6107F108
:1015AC0008031946044800F04BFB00BF1837BD4632
:1015BC0080BD00BF0010024000080140000C01403B
:1015CC0080B582B000AF786000F0A8F8FEF7E2FDBD
:1015DC0000BF0837BD4680BD80B400AF72B600BFF7
:1015EC00FEE7000080B483B000AF7860074B1B6847
:1015FC007A6892FBF3F3064A1360064B00221A60DA
:10160C0000BF0C37BD4680BC704700BF780000207F
:10161C00140100201001002080B483B000AF78606A
:10162C00074B1B687A6892FBF3F3064A1360064B70
:10163C0000221A6000BF0C37BD4680BC704700BF4B
:10164C00780000201C0100201801002080B483B019
:10165C0000AF7860074B1B687A6892FBF3F3064A7D
:10166C001360064B00221A6000BF0C37BD4680BCCD
:10167C00704700BF780000202401002020010020CA
:10168C0080B483B000AF7860074B1B687A6892FB1C
:10169C00F3F3064A1360064B00221A6000BF0C37A6
:1016AC00BD4680BC704700BF780000202C01002094
:1016BC002801002080B483B000AF7860074B1B6812
:1016CC007A6892FBF3F3064A1360064B00221A6009
:1016DC0000BF0C37BD4680BC704700BF78000020AF
:1016EC00340100203001002080B483B000AF78605A
:1016FC00074B1B687A6892FBF3F3064A1360064BA0
:10170C0000221A6000BF0C37BD4680BC704700BF7A
:10171C00780000203C0100203801002080B400AF8C
:10172C00314B1B68002B0BDD2F4B1B68013B2E4AEA
:10173C0013602D4B1B68002B02DC2C4B01221A6012
:10174C002B4B1B68002B0BDD294B1B68013B284ADC
:10175C001360274B1B68002B02DC264B01221A60FE
:10176C00254B1B68002B0BDD234B1B68013B224ACE
:10177C001360214B1B68002B02DC204B01221A60EA
:10178C001F4B1B68002B0BDD1D4B1B68013B1C4AC0
:10179C0013601B4B1B68002B02DC1A4B01221A60D6
:1017AC00194B1B68002B0BDD174B1B68013B164AB2
:1017BC001360154B1B68002B02DC144B01221A60C2
:1017CC00134B1B68002B0BDD114B1B68013B104AA4
:1017DC0013600F4B1B68002B02DC0E4B01221A60AE
:1017EC0000BFBD4680BC70471401002010010020D2
:1017FC001C010020180100202401002020010020E1
:10180C002C01002028010020340100203001002090
:10181C003C0100203801002080B483B000AF0E4B97
:10182C009B690D4A43F0010393610B4B9B6903F0D9
:10183C0001037B607B68084BDB69074A43F08053EC
:10184C00D361054BDB6903F080533B603B6800BF01
:10185C000C37BD4680BC70470010024080B584B088
:10186C0000AF78607B681B68B3F1804F13D10C4BD1
:10187C00DB690B4A43F00103D361094BDB6903F0CD
:10188C000103FB60FB68002200211C2000F0A1F981
:10189C001C2000F0BAF900BF1037BD4680BD00BF58
:1018AC000010024080B400AFFEE780B400AFFEE74A
:1018BC0080B400AFFEE780B400AFFEE780B400AFA9
:1018CC00FEE780B400AF00BFBD4680BC704780B45B
:1018DC0000AF00BFBD4680BC704780B400AF00BFF6
:1018EC00BD4680BC704780B500AF00F07FF800BFEC
:1018FC0080BD000080B500AF024800F0E9FF00BFDA
:10190C0080BD00BFC800002080B400AF00BFBD4642
:10191C0080BC70470C480D490D4A002302E0D45896
:10192C00C4500433C4188C42F9D30A4A0A4C00231D
:10193C0001E013600432A242FBD3FFF7E5FF01F094
:10194C000FFBFFF729FD70470000002088000020E6
:10195C00043000088800002044010020FEE700004D
:10196C0080B500AF084B1B68074A43F010031360A7
:10197C00032000F023F90F2000F008F8FFF74CFFCC
:10198C000023184680BD00BF0020024080B582B005
:10199C0000AF7860124B1A68124B1B7819464FF443
:1019AC007A73B3FBF1F3B2FBF3F3184600F03BF997
:1019BC000346002B01D001230EE07B680F2B0AD8C5
:1019CC00002279684FF0FF3000F003F9064A7B687B
:1019DC001360002300E0012318460837BD4680BD84
:1019EC007C000020840000208000002080B400AF28
:1019FC00054B1B781A46054B1B681344034A1360AE
:101A0C0000BFBD4680BC7047840000204001002010
:101A1C0080B400AF024B1B681846BD4680BC7047B3
:101A2C004001002080B485B000AF78607B6803F083
:101A3C000703FB600C4BDB68BB60BA684FF6FF0317
:101A4C001340BB60FB681A02BB68134343F0BF63CF
:101A5C0043F40033BB60044ABB68D36000BF143747
:101A6C00BD4680BC704700BF00ED00E080B400AF05
:101A7C00044BDB681B0A03F007031846BD4680BC09
:101A8C00704700BF00ED00E080B483B000AF0346A8
:101A9C00FB7197F90730002B0BDBFB7903F01F026E
:101AAC00064997F907305B09012000FA02F241F868
:101ABC00232000BF0C37BD4680BC704700E100E01E
:101ACC0080B483B000AF03463960FB7197F90730DF
:101ADC00002B0ADB3B68DAB20C4997F9073012018C
:101AEC00D2B20B4483F800230AE03B68DAB208490F
:101AFC00FB7903F00F03043B1201D2B20B441A76AC
:101B0C0000BF0C37BD4680BC704700BF00E100E051
:101B1C0000ED00E080B489B000AFF860B9607A6085
:101B2C00FB6803F00703FB61FB69C3F10703042B9C
:101B3C0028BF0423BB61FB690433062B02D9FB6964
:101B4C00033B00E000237B614FF0FF32BB6902FADC
:101B5C0003F3DA43BB681A407B699A404FF0FF31BC
:101B6C007B6901FA03F3D9437B680B401343184696
:101B7C002437BD4680BC704780B582B000AF78601A
:101B8C007B68013BB3F1807F01D301230FE00A4A4C
:101B9C007B68013B53600F214FF0FF30FFF790FF44
:101BAC00054B00229A60044B07221A60002318464A
:101BBC000837BD4680BD00BF10E000E080B582B0A4
:101BCC0000AF78607868FFF72DFF00BF0837BD467F
:101BDC0080BD80B586B000AF0346B9607A60FB73F8
:101BEC0000237B61FFF742FF78617A68B9687869F6
:101BFC00FFF790FF024697F90F3011461846FFF792
:101C0C005FFF00BF1837BD4680BD80B582B000AF06
:101C1C000346FB7197F907301846FFF735FF00BFF5
:101C2C000837BD4680BD80B582B000AF786078685B
:101C3C00FFF7A2FF034618460837BD4680BD0000DB
:101C4C0080B48BB000AF7860396000237B620023D6
:101C5C003B6261E101227B6A02FA03F3FB613B68A0
:101C6C001B68FA691340BB61BA69FB699A4240F080
:101C7C0050813B685B68974A93425ED0954A934289
:101C8C0075D8954A934258D0934A93426FD8934A49
:101C9C00934252D0914A934269D8914A93424CD084
:101CAC008F4A934263D88F4A934246D08D4A9342CF
:101CBC005DD8122B2AD8122B59D801A252F823F036
:101CCC00471D0008211D0008331D0008751D000864
:101CDC007B1D00087B1D00087B1D00087B1D000878
:101CEC007B1D00087B1D00087B1D00087B1D000868
:101CFC007B1D00087B1D00087B1D00087B1D000858
:101D0C007B1D0008291D00083D1D0008764A9342E2
:101D1C0013D02CE03B68DB683B6229E03B68DB6856
:101D2C0004333B6224E03B68DB6808333B621FE012
:101D3C003B68DB680C333B621AE03B689B68002B0A
:101D4C0002D104233B6213E03B689B68012B05D155
:101D5C0008233B627B68FA691A6109E008233B623D
:101D6C007B68FA695A6103E000233B6200E000BF24
:101D7C00BB69FF2B01D87B6801E07B6804337B6176
:101D8C00BB69FF2B02D87B6A9B0002E07B6A083B95
:101D9C009B003B617B691A680F213B6901FA03F3D5
:101DAC00DB431A40396A3B6901FA03F31A437B6936
:101DBC001A603B685B6803F08053002B00F0A9802D
:101DCC004A4B9B69494A43F001039361474B9B691A
:101DDC0003F00103BB60BB68454A7B6A9B08023376
:101DEC0052F82330FB607B6A03F003039B000F2245
:101DFC0002FA03F3DB43FA681340FB607B683D4A4D
:101E0C0093420DD07B683C4A934207D07B683B4A97
:101E1C00934201D1022304E0032302E0012300E0FA
:101E2C0000237A6A02F0030292009340FA6813438B
:101E3C00FB602F497B6A9B080233FA6841F8232028
:101E4C003B685B6803F48033002B06D02C4B1A687C
:101E5C002B49BB6913430B6006E0294B1A68BB691D
:101E6C00DB43274913400B603B685B6803F400338A
:101E7C00002B06D0224B5A682149BB6913434B6097
:101E8C0006E01F4B5A68BB69DB431D4913404B608E
:101E9C003B685B6803F48013002B06D0184B9A68E0
:101EAC001749BB6913438B6006E0154B9A68BB69F5
:101EBC00DB43134913408B603B685B6803F40013EE
:101ECC00002B1FD00E4BDA680D49BB691343CB6056
:101EDC001FE000BF00003210000031100000221083
:101EEC000000211000001210000011100010024020
:101EFC000000014000080140000C014000100140AE
:101F0C00000401400B4BDA68BB69DB430949134001
:101F1C00CB607B6A01337B623B681A687B6A22FA6E
:101F2C0003F3002B7FF496AE00BF00BF2C37BD46E9
:101F3C0080BC70470004014080B485B000AF78606D
:101F4C000B467B807B689A687B881340002B02D001
:101F5C000123FB7301E00023FB73FB7B1846143752
:101F6C00BD4680BC704780B483B000AF78600B4630
:101F7C007B8013467B707B78002B03D07A887B6840
:101F8C001A6103E07B881A047B681A6100BF0C3766
:101F9C00BD4680BC704780B485B000AF78600B46FE
:101FAC007B807B68DB68FB607A88FB6813401A04D3
:101FBC00FB68D9437B880B401A437B681A6100BFCE
:101FCC001437BD4680BC704780B586B000AF7860D2
:101FDC007B68002B01D1012372E27B681B6803F044
:101FEC000103002B00F08780924B5B6803F00C031D
:101FFC00042B0CD08F4B5B6803F00C03082B12D115
:10200C008C4B5B6803F48033B3F5803F0BD1894B69
:10201C001B6803F40033002B6CD07B685B68002BCF
:10202C0068D101234CE27B685B68B3F5803F06D135
:10203C00804B1B687F4A43F4803313602EE07B682F
:10204C005B68002B0CD17B4B1B687A4A23F48033E2
:10205C001360784B1B68774A23F4802313601DE0D0
:10206C007B685B68B3F5A02F0CD1724B1B68714A6F
:10207C0043F4802313606F4B1B686E4A43F4803328
:10208C0013600BE06B4B1B686A4A23F480331360BC
:10209C00684B1B68674A23F4802313607B685B687A
:1020AC00002B13D0FFF7B4FC386108E0FFF7B0FC4D
:1020BC0002463B69D31A642B01D9032300E25D4B22
:1020CC001B6803F40033002BF0D014E0FFF7A0FCE6
:1020DC00386108E0FFF79CFC02463B69D31A642B7D
:1020EC0001D90323ECE1534B1B6803F40033002BA1
:1020FC00F0D100E000BF7B681B6803F00203002BEB
:10210C0063D04C4B5B6803F00C03002B0BD0494B9A
:10211C005B6803F00C03082B1CD1464B5B6803F483
:10212C008033002B16D1434B1B6803F00203002BAA
:10213C0005D07B681B69012B01D00123C0E13D4B0D
:10214C001B6823F0F8027B685B69DB003949134399
:10215C000B603AE07B681B69002B20D0364B0122C8
:10216C001A60FFF755FC386108E0FFF751FC024696
:10217C003B69D31A022B01D90323A1E12D4B1B6818
:10218C0003F00203002BF0D02A4B1B6823F0F8025B
:10219C007B685B69DB00274913430B6015E0264B1A
:1021AC0000221A60FFF734FC386108E0FFF730FCBE
:1021BC0002463B69D31A022B01D9032380E11D4B44
:1021CC001B6803F00203002BF0D17B681B6803F043
:1021DC000803002B3AD07B689B69002B19D0174B56
:1021EC0001221A60FFF714FC386108E0FFF710FCBD
:1021FC0002463B69D31A022B01D9032360E10D4B34
:10220C005B6A03F00203002BF0D0012000F0A6FA69
:10221C001CE00A4B00221A60FFF7FAFB38610FE052
:10222C00FFF7F6FB02463B69D31A022B08D90323AE
:10223C0046E100BF001002400000424280044242CE
:10224C00924B5B6A03F00203002BE9D17B681B689D
:10225C0003F00403002B00F0A6800023FB758B4BCE
:10226C00DB6903F08053002B0DD1884BDB69874A67
:10227C0043F08053D361854BDB6903F08053BB6023
:10228C00BB680123FB75824B1B6803F48073002B26
:10229C0018D17F4B1B687E4A43F480731360FFF7A1
:1022AC00B7FB386108E0FFF7B3FB02463B69D31A72
:1022BC00642B01D9032303E1754B1B6803F4807372
:1022CC00002BF0D07B68DB68012B06D16F4B1B6AAF
:1022DC006E4A43F0010313622DE07B68DB68002B30
:1022EC000CD16A4B1B6A694A23F001031362674BDA
:1022FC001B6A664A23F0040313621CE07B68DB68EC
:10230C00052B0CD1614B1B6A604A43F0040313622A
:10231C005E4B1B6A5D4A43F0010313620BE05B4B9F
:10232C001B6A5A4A23F001031362584B1B6A574A23
:10233C0023F0040313627B68DB68002B15D0FFF7D6
:10234C0067FB38610AE0FFF763FB02463B69D31A6F
:10235C0041F28832934201D90323B1E04B4B1B6A03
:10236C0003F00203002BEED014E0FFF751FB3861B1
:10237C000AE0FFF74DFB02463B69D31A41F2883263
:10238C00934201D903239BE0404B1B6A03F00203E9
:10239C00002BEED1FB7D012B05D13C4BDB693B4A7D
:1023AC0023F08053D3617B68DB69002B00F08780BE
:1023BC00364B5B6803F00C03082B61D07B68DB6940
:1023CC00022B46D1334B00221A60FFF721FB3861F8
:1023DC0008E0FFF71DFB02463B69D31A022B01D91B
:1023EC0003236DE0294B1B6803F00073002BF0D125
:1023FC007B681B6AB3F5803F08D1244B5B6823F4E0
:10240C0000327B689B68214913434B601F4B5B6810
:10241C0023F474127B68196A7B685B6A0B431B4953
:10242C0013434B601B4B01221A60FFF7F1FA386122
:10243C0008E0FFF7EDFA02463B69D31A022B01D9EB
:10244C0003233DE0114B1B6803F00073002BF0D00D
:10245C0035E0104B00221A60FFF7DAFA386108E019
:10246C00FFF7D6FA02463B69D31A022B01D9032394
:10247C0026E0064B1B6803F00073002BF0D11EE026
:10248C007B68DB69012B07D1012319E000100240A6
:10249C0000700040600042420B4B5B68FB60FB68C5
:1024AC0003F480327B681B6A9A4206D1FB6803F402
:1024BC0070127B685B6A9A4201D0012300E0002312
:1024CC0018461837BD4680BD0010024080B584B058
:1024DC0000AF786039607B68002B01D10123D0E01C
:1024EC006A4B1B6803F007033A689A4210D9674B92
:1024FC001B6823F0070265493B6813430B60634B71
:10250C001B6803F007033A689A4201D00123B8E034
:10251C007B681B6803F00203002B20D07B681B68D0
:10252C0003F00403002B05D0594B5B68584A43F465
:10253C00E06353607B681B6803F00803002B05D035
:10254C00534B5B68524A43F460535360504B5B6887
:10255C0023F0F0027B689B684D4913434B607B680A
:10256C001B6803F00103002B40D07B685B68012BD8
:10257C0007D1474B1B6803F40033002B15D1012303
:10258C007FE07B685B68022B07D1414B1B6803F033
:10259C000073002B09D1012373E03D4B1B6803F042
:1025AC000203002B01D101236BE0394B5B6823F054
:1025BC0003027B685B68364913434B60FFF728FACC
:1025CC00F8600AE0FFF724FA0246FB68D31A41F2DE
:1025DC008832934201D9032353E02D4B5B6803F0FF
:1025EC000C027B685B689B009A42EBD1274B1B6803
:1025FC0003F007033A689A4210D2244B1B6823F06D
:10260C00070222493B6813430B60204B1B6803F005
:10261C0007033A689A4201D0012332E07B681B68B9
:10262C0003F00403002B08D0194B5B6823F4E06221
:10263C007B68DB68164913434B607B681B6803F0AF
:10264C000803002B09D0124B5B6823F460527B68A3
:10265C001B69DB000E4913434B6000F021F8024666
:10266C000B4B5B681B0903F00F030A49CB5C22FA86
:10267C0003F3094A1360094B1B681846FFF786F9E8
:10268C00002318461037BD4680BD00BF0020024015
:10269C0000100240EC2F00087C000020800000207D
:1026AC0090B48AB000AF294B3C1D0FCB84E80F00CF
:1026BC0040F201233B800023FB610023BB6100231C
:1026CC007B6200237B6100233B62214B5B68FB61D7
:1026DC00FB6903F00C03042B02D0082B03D02BE076
:1026EC001C4B3B622BE0FB699B0C03F00F03283364
:1026FC003B4413F8243C7B61FB6903F48033002BCF
:10270C0012D0134B5B685B0C03F0010328333B4482
:10271C0013F8283CBB617B690E4A03FB02F2BB69D0
:10272C00B2FBF3F37B6204E07B690B4A02FB03F31D
:10273C007B627B6A3B6202E0064B3B6200BF3B6AFA
:10274C0018462837BD4690BC704700BFDC2F0008E8
:10275C000010024000127A0000093D0080B485B0E0
:10276C0000AF78600A4B1B680A4AA2FB03235B0A82
:10277C007A6802FB03F3FB6000BFFB685A1EFA6029
:10278C00002BF9D100BF00BF1437BD4680BC704789
:10279C007C000020D34D621080B582B000AF786011
:1027AC007B68002B01D1012341E07B6893F83D301D
:1027BC00DBB2002B06D17B68002283F83C207868C2
:1027CC00FFF74CF87B68022283F83D207B681A687F
:1027DC007B6804331946104600F06AFA7B680122C4
:1027EC0083F846207B68012283F83E207B68012217
:1027FC0083F83F207B68012283F840207B6801220C
:10280C0083F841207B68012283F842207B680122F7
:10281C0083F843207B68012283F844207B680122E3
:10282C0083F845207B68012283F83D20002318465D
:10283C000837BD4680BD000080B485B000AF78601D
:10284C007B6893F83D30DBB2012B01D0012335E0DE
:10285C007B68022283F83D207B681B68DA687B6802
:10286C001B6842F00102DA607B681B68164A9342CF
:10287C0009D07B681B68B3F1804F04D07B681B6860
:10288C00124A934211D17B681B689B6803F00703C3
:10289C00FB60FB68062B10D07B681B681A687B6892
:1028AC001B6842F001021A6007E07B681B681A681B
:1028BC007B681B6842F001021A600023184614372B
:1028CC00BD4680BC704700BF002C01400004004096
:1028DC0080B582B000AF78607B681B681B6903F021
:1028EC000203022B22D17B681B68DB6803F0020316
:1028FC00022B1BD17B681B686FF002021A617B688C
:10290C0001221A777B681B689B6903F00303002B79
:10291C0003D0786800F0B1F905E0786800F0A4F90C
:10292C00786800F0B3F97B6800221A777B681B6823
:10293C001B6903F00403042B22D17B681B68DB6842
:10294C0003F00403042B1BD17B681B686FF004029B
:10295C001A617B6802221A777B681B689B6903F4F7
:10296C004073002B03D0786800F087F905E0786895
:10297C0000F07AF9786800F089F97B6800221A7700
:10298C007B681B681B6903F00803082B22D17B684A
:10299C001B68DB6803F00803082B1BD17B681B68E2
:1029AC006FF008021A617B6804221A777B681B6837
:1029BC00DB6903F00303002B03D0786800F05DF9AA
:1029CC0005E0786800F050F9786800F05FF97B68F2
:1029DC0000221A777B681B681B6903F01003102B0D
:1029EC0022D17B681B68DB6803F01003102B1BD112
:1029FC007B681B686FF010021A617B6808221A77DB
:102A0C007B681B68DB6903F44073002B03D0786888
:102A1C0000F033F905E0786800F026F9786800F0EA
:102A2C0035F97B6800221A777B681B681B6903F0F9
:102A3C000103012B0ED17B681B68DB6803F00103DB
:102A4C00012B07D17B681B686FF001021A61786853
:102A5C00FEF7B6FD7B681B681B6903F08003802BB7
:102A6C000ED17B681B68DB6803F08003802B07D1D9
:102A7C007B681B686FF080021A61786800F067FA57
:102A8C007B681B681B6903F04003402B0ED17B68ED
:102A9C001B68DB6803F04003402B07D17B681B6885
:102AAC006FF040021A61786800F0F9F87B681B68D7
:102ABC001B6903F02003202B0ED17B681B68DB689D
:102ACC0003F02003202B07D17B681B686FF02002DA
:102ADC001A61786800F032FA00BF0837BD4680BD35
:102AEC0080B584B000AF786039607B6893F83C3077
:102AFC00012B01D10223B3E07B68012283F83C2037
:102B0C007B68022283F83D207B681B689B68FB6016
:102B1C00FB6823F07703FB60FB6823F47F43FB60C7
:102B2C007B681B68FA689A603B681B68B3F5005FAA
:102B3C003ED0B3F5005F00F28780B3F5805F00F004
:102B4C008580B3F5805F7FD8702B1AD0702B7BD823
:102B5C00602B50D0602B77D8502B3CD0502B73D897
:102B6C00402B58D0402B6FD8302B64D0302B6BD8E7
:102B7C00202B60D0202B67D8002B5CD0102B5AD088
:102B8C0062E07B6818683B6899683B685A683B68E8
:102B9C00DB6800F05CF97B681B689B68FB60FB687A
:102BAC0043F07703FB607B681B68FA689A604EE021
:102BBC007B6818683B6899683B685A683B68DB68B7
:102BCC0000F045F97B681B689A687B681B6842F4C7
:102BDC0080429A603BE07B6818683B6859683B68A8
:102BEC00DB681A4600F0BCF87B681B68502118465D
:102BFC0000F013F92BE07B6818683B6859683B6858
:102C0C00DB681A4600F0DAF87B681B68602118460E
:102C1C0000F003F91BE07B6818683B6859683B6857
:102C2C00DB681A4600F09CF87B681B68402118464C
:102C3C0000F0F3F80BE07B681A683B681B681946D8
:102C4C00104600F0EAF802E000BF00E000BF7B682D
:102C5C00012283F83D207B68002283F83C2000236E
:102C6C0018461037BD4680BD80B483B000AF786085
:102C7C0000BF0C37BD4680BC704780B483B000AF3A
:102C8C00786000BF0C37BD4680BC704780B483B001
:102C9C0000AF786000BF0C37BD4680BC704780B475
:102CAC0083B000AF786000BF0C37BD4680BC704766
:102CBC0080B485B000AF786039607B681B68FB60BE
:102CCC007B68254A934207D07B68B3F1804F03D0D1
:102CDC007B68224A934208D1FB6823F07003FB60A7
:102CEC003B685B68FA681343FB607B681A4A934243
:102CFC0007D07B68B3F1804F03D07B68174A9342AF
:102D0C0008D1FB6823F44073FB603B68DB68FA680E
:102D1C001343FB60FB6823F080023B685B69134341
:102D2C00FB607B68FA681A603B689A687B68DA62B9
:102D3C003B681A687B689A627B68074A934203D1A6
:102D4C003B681A697B681A637B6801225A6100BF71
:102D5C001437BD4680BC7047002C01400004004075
:102D6C0080B487B000AFF860B9607A60FB681B6A0A
:102D7C007B61FB681B6A23F00102FB681A62FB682B
:102D8C009B693B613B6923F0F0033B617B681B0152
:102D9C003A6913433B617B6923F00A037B617A69CF
:102DAC00BB6813437B61FB683A699A61FB687A697B
:102DBC001A6200BF1C37BD4680BC704780B487B018
:102DCC0000AFF860B9607A60FB681B6A23F01002F0
:102DDC00FB681A62FB689B697B61FB681B6A3B6141
:102DEC007B6923F470437B617B681B037A69134313
:102DFC007B613B6923F0A0033B61BB681B013A6913
:102E0C0013433B61FB687A699A61FB683A691A6201
:102E1C0000BF1C37BD4680BC704780B485B000AF86
:102E2C00786039607B689B68FB60FB6823F07003FB
:102E3C00FB603A68FB68134343F00703FB607B6855
:102E4C00FA689A6000BF1437BD4680BC704780B4E6
:102E5C0087B000AFF860B9607A603B60FB689B6834
:102E6C007B617B6923F47F437B613B681A027B683F
:102E7C001A43BB6813437A6913437B61FB687A6915
:102E8C009A6000BF1C37BD4680BC704780B485B0CB
:102E9C0000AF786039607B6893F83C30012B01D12E
:102EAC00022341E07B68012283F83C207B680222EC
:102EBC0083F83D207B681B685B68FB607B681B6844
:102ECC009B68BB60FB6823F07003FB603B681B686E
:102EDC00FA681343FB607B681B68FA685A607B686E
:102EEC001B68144A934209D07B681B68B3F1804F6E
:102EFC0004D07B681B68104A93420CD1BB6823F04A
:102F0C008003BB603B685B68BA681343BB607B683B
:102F1C001B68BA689A607B68012283F83D207B6845
:102F2C00002283F83C20002318461437BD4680BC91
:102F3C00704700BF002C01400004004080B483B0F7
:102F4C0000AF786000BF0C37BD4680BC704780B4C2
:102F5C0083B000AF786000BF0C37BD4680BC7047B3
:102F6C0070B500260C4D0D4C641BA410A64209D163
:102F7C0000F022F800260A4D0A4C641BA410A6424D
:102F8C0005D170BD55F8043B98470136EEE755F86E
:102F9C00043B98470136F2E7FC2F0008FC2F000891
:102FAC00FC2F00080030000803460244934200D175
:102FBC00704703F8011BF9E7F8B500BFF8BC08BC73
:102FCC009E467047F8B500BFF8BC08BC9E467047DB
:102FDC0002030405060708090A0B0C0D0E0F10104E
:102FEC0000000000000000000102030406070809AD
:042FFC003101000897
:043000000D010008B6
:1030040000200000004000000080000001000000DB
:1030140001000000010000000100000001000000A8
:103024000100000001000000010000000100000098
:103034000100000001000000010000002C0100005C
:103044002C0100002C01000005000000030000001A
:1030540088130000B80B0000D00700000000000037
:103064000500000000000000030000000100000053
:1030740001000000010000000A0000000024F40028
:08308400100000000100000033
:0400000508001921B5
:00000001FF
